:100000000C9492000C94BA000C94BA000C94BA00B0
:100010000C94BA000C94BA000C94BA000C94BA0078
:100020000C94BA000C94BA000C9406030C94780358
:100030000C94BA000C94BA000C94BA000C94BA0058
:100040000C94BA000C94BA000C94BA000C94BA0048
:100050000C94BA000C94BA000C94BA000C94BC0234
:100060000C94BA000C94BA000C94BA000C94BA0028
:100070000C94BA000C94BA000C94BA000C94BA0018
:100080000C94BA000C94BA000C94BA000C94BA0008
:100090000C94B3070C94BA000C94BA000C94BA00F8
:1000A0000C94BA000C94BA000C94BA00080B00022D
:1000B0000202010009040000010202000005240000
:1000C0001001052401010104240206052406000193
:1000D0000705810310004009040100020A00000026
:1000E00007050202400000070583024000000403E8
:1000F000090412010002EF02014041233680000191
:100100000102030141726475696E6F204C4C43001B
:1001100041726475696E6F204C656F6E6172646FB9
:100120000000A90A11241FBECFEFDAE0DEBFCDBF69
:1001300011E0A0E0B1E0E4E1F6E102C005900D922B
:10014000A035B107D9F722E0A0E5B1E001C01D92CA
:10015000A738B207E1F710E0C2E9D0E004C0219768
:10016000FE010E94FD0AC139D107C9F70E942B097F
:100170000C94080B0C9400004091520150915301D3
:10018000209150013091510142175307B4F49091DE
:10019000E8009570E1F39091E80092FD19C080931A
:1001A000F100809152019091530101968F7399272C
:1001B000892B19F48EEF8093E80080915201909181
:1001C00053010196909353018093520181E0089569
:1001D00080E00895DF92EF92FF920F931F93CF93E9
:1001E000DF93D82EF92EE42E062F10E0C8010196D9
:1001F000880F0E94BC0083E00E94BC00CD2DDF2D43
:100200000C0F1D1FC017D10789F0E7FE03C0FE01C8
:10021000849101C088810E94BC00F82E80E00E9479
:10022000BC008F2121968111EDCF01C081E0DF91CB
:10023000CF911F910F91FF90EF90DF900895DF9283
:10024000EF92FF920F931F93CF93DF93D82E8A01E3
:100250007B01E40EF51EEB01CE15DF0571F0D7FE34
:1002600003C0FE01849101C088810E94BC002196D8
:100270008111F2CF8FEF9FEF01C0C801DF91CF91C5
:100280001F910F91FF90EF90DF900895615030F033
:100290002091F100FC0120830196F8CF289884E694
:1002A000809361010895CF92DF92EF92FF920F93B6
:1002B0001F93CF93DF936C017A018B01C0E0D0E0F4
:1002C000CE15DF0581F0D8016D918D01D601ED913C
:1002D000FC910190F081E02DC6010995892B11F068
:1002E0002196EECF7E01C701DF91CF911F910F9133
:1002F000FF90EF90DF90CF900895CF93DF931F9200
:10030000CDB7DEB76983DC01ED91FC910280F3810A
:10031000E02D41E050E0BE016F5F7F4F09950F90E7
:10032000DF91CF91089583E08093E9008091F200FE
:10033000882319F08AE38093E8000895FC018485FE
:10034000958597FD0BC09FB7F89482E08093E900F4
:100350008091F2009FBF90E0019608959FB7F894B6
:1003600082E08093E9008091F2009FBF90E00895C1
:10037000089580E090E008950E94030B0F931F936F
:10038000CF93DF931F92CDB7DEB782E0898342E43B
:1003900050E06CEA70E080E80E941F010E94DD08D6
:1003A000DC0112960D911C9113970115110589F02E
:1003B000D801ED91FC910280F381E02DBE016F5FC9
:1003C0007F4FC801099597FD04C0F801008511858C
:1003D000ECCF89810F90DF91CF911F910F910895FC
:1003E0008F929F92AF92BF92CF92DF92EF92FF9245
:1003F0000F931F93CF93DF936C017B018A01809150
:100400000B01882309F45CC080916201882309F400
:1004100057C08091560180FF05C08091E000826046
:100420008093E000E801B12C8AEFA82E93E0892E9A
:100430002AE3922E209711F4BB20D9F10E94A20743
:1004400081110AC0AA94AA20D9F161E070E080E08D
:1004500090E00E94F108EECF282F30E0C217D307BA
:100460000CF48C2F9FB7F8948092E9002091E8005B
:1004700025FF1DC0282F30E0C21BD30BF701815090
:1004800020F041914093F100FACFE20EF31EBB2021
:1004900019F09092E8000AC08091E80085FD07C03D
:1004A0009092E800BB24B394209709F0B12C9FBF31
:1004B000C1CF5D9884E6809355011016110644F073
:1004C00081E090E0F6019383828380E090E001C0B8
:1004D000C801DF91CF911F910F91FF90EF90DF90B6
:1004E000CF90BF90AF909F908F9008950E94A207E9
:1004F00090E008950F931F93CF93DF931F92CDB792
:10050000DEB78C01FC018485958597FF0EC0CE0176
:1005100001960E947407019719F4898190E002C046
:100520008FEF9FEFF80195878487F8018485958583
:100530000F90DF91CF911F910F910895CF93DF938B
:100540001F92CDB7DEB7FC018485958597FD05C068
:100550002FEF3FEF358724870BC0CE0101960E9415
:100560007407019719F4898190E002C08FEF9FEF23
:100570000F90DF91CF9108951F920F920FB60F92B7
:1005800011242F933F938F939F93AF93BF938091A9
:10059000590190915A01A0915B01B0915C01309199
:1005A000580123E0230F2D3720F40196A11DB11D22
:1005B00005C026E8230F0296A11DB11D2093580106
:1005C0008093590190935A01A0935B01B0935C0111
:1005D00080915D0190915E01A0915F01B0916001F9
:1005E0000196A11DB11D80935D0190935E01A093C2
:1005F0005F01B0936001BF91AF919F918F913F9147
:100600002F910F900FBE0F901F9018951F920F9271
:100610000FB60F9211248F939F938091E1009091D8
:10062000E100937F9093E10083FF0FC01092E900F7
:1006300091E09093EB001092EC0092E39093ED0028
:100640001092620198E09093F00082FF20C093E046
:100650009093E9009091F200992319F09AE3909316
:10066000E80090915501992339F0909155019150EE
:1006700090935501992389F190916101992339F063
:1006800090916101915090936101992341F184FF10
:1006900010C08091E2008E7E81608093E2008091A4
:1006A000E1008F7E8093E100809156018E7E806113
:1006B00011C080FF16C08091E2008E7E8061809321
:1006C000E2008091E1008E7E8093E10080915601EE
:1006D0008E7E81608093560104C05D9ACDCF289AAA
:1006E000D6CF9F918F910F900FBE0F901F901895AE
:1006F0001F920F920FB60F921124CF92DF92EF92BA
:10070000FF920F931F932F933F934F935F936F939A
:100710007F938F939F93AF93BF93EF93FF93CF9369
:10072000DF93CDB7DEB76C97DEBFCDBF1092E90087
:100730008091E80083FFFBC168E0CE0145960E94EE
:10074000460182EF8093E8008D8987FF05C0909174
:10075000E80090FFFCCF03C09EEF9093E800982F35
:10076000907609F0C6C09E894F89588D2F89F88CE4
:1007700091110CC0803829F4809157018093F100C9
:1007800002C01092F1001092F10045C1913051F475
:10079000811141C14130510509F03DC1809157019E
:1007A0008D7F0BC0933061F4811135C1413051050B
:1007B00009F031C1809157018260809357012BC1AC
:1007C000953049F48091E80080FFFCCF822F80684B
:1007D0008093E30020C1963009F05EC00B8D1C8D24
:1007E00022E01092E9001092530110925201F2128D
:1007F00032C010925101109250010E94BE0199E046
:10080000BE016F5F7F4FDB01E92F1D92EA95E9F78B
:100810009983FA8291E09E8390EA98879AEF99876C
:100820002091520130915301275F3F4F3C832B832E
:100830008D831092E900109253011092520110938F
:1008400051010093500149E050E080E00E941F01F7
:100850000E94BE01E0C010935101009350010E941C
:10086000DD08DC0112960D911C91139701151105FD
:1008700009F4BBC0D801ED91FC910480F581E02D15
:10088000BE016B5E7F4FC8010995009709F0C7C094
:10089000F80100851185EACF973009F445C19830F9
:1008A00021F481E08093F100B6C0993009F0B3C023
:1008B000837009F039C1EDE0F1E081E031E096E3C9
:1008C0002081211109C08EE78093EA001092EA008E
:1008D0008F89809362019FC08093E9003093EB0081
:1008E00021912093EC009093ED008F5F873041F7CA
:1008F000EACF8B8D9C8D1092E900109253011092DB
:1009000052019093510180935001898D811153C000
:100910008E899D89913A49F4813209F005C147E0F9
:1009200050E064E071E080E0BBC0913209F0FCC0AF
:10093000833269F48F89988DA0E0B0E08093000144
:1009400090930101A0930201B093030164C080322F
:1009500069F48091E80082FFFCCF67E084E091E0D9
:100960000E9446018BEF8093E80055C0823209F067
:1009700052C08F8980930B01EEEFFFE78591949130
:100980008B3F9C4D19F0E0E0F8E002C0EEEFFAE09A
:100990008091040190910501A0910601B091070199
:1009A000803B9440A105B10509F09EC080910B01E8
:1009B00080FF79C099C00E94DD08FC01028113818B
:1009C0000115110509F4B0C0D801ED91FC91019019
:1009D000F081E02DBE016B5E7F4FC801099581114A
:1009E0001AC0F80100851185EBCFF1E0FF1609F47C
:1009F0004EC0F3E0FF1298C08F89882309F44AC0E3
:100A0000823089F440E860E180E191E00E94EA00F0
:100A1000882309F489C08EEF8093E80088C01816F7
:100A20001906CCF381C0813029F440E86BE084E002
:100A300091E0ECCF833009F077C00E94DD08DC0143
:100A40001296ED90FC9013978E010F5F1F4F680177
:100A5000E114F10479F0D701ED91FC910680F78162
:100A6000E02DB801C7010995080F111DF701E084B9
:100A7000F184EECFD8011C92F60101900020E9F735
:100A80003197BF016C197D0940E0C601BFCF62EF0D
:100A900070E002C06EEE70E0FB01449150E080E82F
:100AA0000E941F01B8CFEE3F2AE0F20751F080818B
:100AB00091818737A7E79A0721F09093FF0A8093E7
:100AC000FE0A87E797E79183808380916000809397
:100AD00054019BE088E10FB6F894A89580936000DC
:100AE0000FBE9093600097CF8081918187379747A1
:100AF00009F091CFA8958091600088618093600093
:100B00008091540180936000EE3FBAE0FB0739F01A
:100B10008091FE0A9091FF0A918380837CCF10928E
:100B2000FF0A1092FE0A77CF81E28093EB006C9669
:100B30000FB6F894DEBF0FBECDBFDF91CF91FF910E
:100B4000EF91BF91AF919F918F917F916F915F9145
:100B50004F913F912F911F910F91FF90EF90DF9058
:100B6000CF900F900FBE0F901F90189585ED80933A
:100B7000BC008091BC0084FDFCCF10925602089509
:100B80004091EB01262F30E0240F311D2132310539
:100B9000DCF4209156022430C9F4FC0180E090E09E
:100BA000861758F43091EB012191DC01A553BE4F1B
:100BB000A30FB11D2C930196F3CF8091EB01680F29
:100BC0006093EB0180E0089581E0089582E008954C
:100BD0000895E0910F0280910E02E81730F4F0E0E2
:100BE000E05FFD4F808190E008958FEF9FEF0895C3
:100BF00090910F0280910E02981750F4E92FF0E0C7
:100C0000E05FFD4F208130E09F5F90930F0202C0B4
:100C10002FEF3FEFC901089580910E0290E02091DF
:100C20000F02821B91090895CF92DF92EF92FF92FB
:100C30000F931F93CF93DF937C01CB018A01209107
:100C40007A02222389F0EB016B01C40ED51ECC156C
:100C5000DD0569F06991D701ED91FC910190F0817A
:100C6000E02DC7010995F3CF642F0E94C005C8018C
:100C7000DF91CF911F910F91FF90EF90DF90CF9078
:100C80000895CF93DF931F92CDB7DEB7698320918C
:100C90007A022223D1F020917702203240F021E025
:100CA00030E0FC013383228380E090E015C0809126
:100CB0007802E82FF0E0E95AFD4F998190838F5F29
:100CC000809378028093770205C061E0CE0101969F
:100CD0000E94C00581E090E00F90DF91CF910895D0
:100CE0003FB7F89480915D0190915E01A0915F0102
:100CF000B091600126B5A89B05C02F3F19F0019661
:100D0000A11DB11D3FBFBA2FA92F982F8827820F91
:100D1000911DA11DB11DBC01CD0142E0660F771FE1
:100D2000881F991F4A95D1F70895CF938093B501F5
:100D3000C091B30191E090937A02C093790210922E
:100D4000780210927702682F8BE792E00E944106AA
:100D500020917702213208F049C08091560281111A
:100D6000FCCF92E09093560291E0909355029FEF52
:100D7000909354021092530220935202A7E5B2E0DE
:100D8000E2E3F2E090E0291721F03D9131939F5F7B
:100D9000FACF1092310290913102CC0FC92BC0933F
:100DA000310290913002913061F4109230029091B2
:100DB00031029093BB009091BC0093FDF8CF95EC6D
:100DC00001C095EE9093BC00909156029230E1F3F1
:100DD000909154029F3F79F080915402803241F00B
:100DE00080915402803331F084E005C081E003C07B
:100DF00082E001C083E01092780210927702109294
:100E00007A0290E09093B8018093B701CF91089552
:100E1000009769F0FC0101900020E9F73197AF01DC
:100E2000481B590BBC0183E691E00C94F00180E073
:100E300090E008958091B901909156029111FCCFF4
:100E400091E090935602909355022FEF2093540215
:100E500010925302109252029093310290913102FB
:100E6000880F892B8093310280913002813061F4A8
:100E700010923002809131028093BB008091BC00BF
:100E800083FDF8CF85EC01C085EE8093BC00809196
:100E900056028130E1F380915302811103C0909199
:100EA000530201C091E0E2E3F2E0A0E1B2E080E0B1
:100EB000891721F021912D938F5FFACF10920F02A5
:100EC00080930E02813049F082E890E09093BE0159
:100ED0008093BD018091BA0108958BE792E00E9452
:100EE000F8058093BA01089520916201211103C091
:100EF0008FEF9FEF08955FB7F89422E02093E90009
:100F00002091F20030E01216130614F421E030E0D4
:100F1000422FFC0184E6415038F02898809361010B
:100F20009091F1009193F7CF2115310521F0809137
:100F3000F200882319F05FBFC90108958BE6809302
:100F4000E800F9CF2FB7F89483E08093E9009091FF
:100F5000E800892F807295FF04C09091F20080E430
:100F6000891B2FBF08951F920F920FB60F92112465
:100F70002F933F934F935F936F937F938F939F93A1
:100F8000AF93BF93EF93FF938091B900887F803632
:100F900009F49CC068F5883209F45BC090F4803194
:100FA00009F454C038F4882309F4F2C0883009F4F5
:100FB0004DC0F2C0883109F44CC0803209F45DC0E4
:100FC000EBC0803409F468C048F4803309F455C09C
:100FD000883309F0E1C080935402D4C0803509F40D
:100FE0004FC0883509F45DC0883409F0D5C0D2C03F
:100FF000883909F4C3C0A8F4883709F467C038F405
:10100000883609F463C0803709F460C0C5C08838E9
:1010100009F4B4C0803909F45FC0803809F0BCC05D
:101020005BC0803B09F484C038F4803A09F466C0A0
:10103000883A09F47DC0B0C0803C09F4A3C0883C64
:1010400009F4A0C0883B09F486C0A6C08091310293
:1010500010C09091530280915202981770F5E09160
:10106000530281E08E0F80935302F0E0EE5CFD4F5F
:1010700080818093BB0085EC82C0809354028AC03B
:10108000E091530281E08E0F809353028091BB0068
:10109000F0E0EE5CFD4F808390915302809152020C
:1010A0006AC0E091530281E08E0F809353028091D9
:1010B000BB00F0E0EE5CFD4F808380915502811112
:1010C00069C081E08093300284EA5DC083E0809350
:1010D000560210920D02CFCF80910D02803208F09F
:1010E0004DC0E0910D0281E08E0F80930D02809142
:1010F000BB00F0E0E351FE4F8083BDCF85EC8093D1
:10110000BC001092560280910D02803230F4E091C2
:101110000D02F0E0E351FE4F108260910D0270E08D
:101120008DEE91E0E0E0F0E0099510920D0234C000
:1011300084E0809356021092EC011092EB01E0E003
:10114000F0E009958091EB01811105C081E0809369
:10115000EB011092CB01E091EC0181E08E0F8093C6
:10116000EC01F0E0E553FE4F80818093BB0090914D
:10117000EC018091EB01981708F47DCF85E880930E
:10118000BC000AC085EC8093BC001092560204C0DB
:10119000109254020E94B605FF91EF91BF91AF915A
:1011A0009F918F917F916F915F914F913F912F917F
:1011B0000F900FBE0F901F9018958091C301811161
:1011C0000DC082E08093BF0184E08093C001109243
:1011D000C2011092C10181E08093C3018FEB91E0C5
:1011E00008958F929F92AF92BF92CF92DF92EF922B
:1011F000FF926B017C010E9470064B015C01C114DF
:10120000D104E104F104F1F00E947006DC01CB018D
:1012100088199909AA09BB09883E9340A105B1051F
:1012200070F321E0C21AD108E108F10888EE880EB7
:1012300083E0981EA11CB11CC114D104E104F10487
:1012400019F7DDCFFF90EF90DF90CF90BF90AF9078
:101250009F908F900895CF93DF93CDB7DEB7A1977E
:101260000FB6F894DEBF0FBECDBF789484B5826010
:1012700084BD84B5816084BD85B5826085BD85B53A
:10128000816085BD80916E00816080936E001092B8
:101290008100809181008260809381008091810033
:1012A00081608093810080918000816080938000C4
:1012B0008091910082608093910080919100816083
:1012C0008093910080919000816080939000809144
:1012D000C10084608093C1008091C10082608093CE
:1012E000C1008091C10081608093C1008091C300E2
:1012F00081608093C3008091C00082608093C000B1
:101300008091C20081608093C20080917A008460E5
:1013100080937A0080917A00826080937A00809135
:101320007A00816080937A0080917A00806880934F
:101330007A0010926201109257011092560180912A
:10134000D70081608093D70080EA8093D80089B568
:10135000806189BD89B5826089BD09B400FEFDCF79
:1013600061E070E080E090E00E94F1088091D80098
:101370008F7C80618093D8008091E000807F809393
:10138000E0008091E1008E7E8093E1008DE080930B
:10139000E200559A209A8FEF9FEF9093700180930F
:1013A0006F0187E391E00E94080786E491E00E94C4
:1013B00008070E941A07182F89E491E00E94080785
:1013C000212F30E040E050E019A28E010F5D1F4F49
:1013D0006AE0C62ED12CE12CF12CCA01B901A7017B
:1013E00096010E94DB0A605DF80162938F0121156E
:1013F00031054105510589F7CF010E94080786E4B0
:1014000091E00E94080710E0812F0E94950664E693
:1014100070E080E090E00E94F1081F5F1F3FA1F79D
:101420008091B50181608093B5010E94950607E027
:1014300010E08091B50190E0880F991F8093B5016D
:101440000E94950664E670E080E090E00E94F1085A
:101450000150110971F707E010E08091B50190E0AB
:10146000959587958093B5010E94950664E670E096
:1014700080E090E00E94F1080150110971F700E04E
:1014800010E0CC24C394D12C7601002E01C0EE0CC8
:101490000A94EAF78091B5018E298093B5010E94E4
:1014A000950664E670E080E090E00E94F1088E2DE1
:1014B00080959091B50189238093B5010E9495068E
:1014C00064E670E080E090E00E94F1080F5F1F4F3B
:1014D00008301105C9F6E12CF12CCC24C394D12C91
:1014E00086010E2C01C0000F0A94EAF78091B50125
:1014F00080278093B5010E94950664E670E080E045
:1015000090E00E94F1088091B50180278093B50199
:101510000E94950664E670E080E090E00E94F10889
:10152000FFEFEF1AFF0A88E0E816F104C9F600E0C1
:1015300010E00E941A070E94950664E670E080E0C1
:1015400090E00E94F1080115110599F30E94000036
:10155000F0CFEBE7F2E01382128288EE93E0A0E096
:10156000B0E084839583A683B78327E131E031839C
:101570002083E3E6F1E01382128284839583A683BD
:10158000B78389E291E0918380838FEF9FEF958706
:101590008487E9EBF1E010821182828383831582D4
:1015A0001482E3EBF1E099E39083118282838383D9
:1015B000158214820895A1E21A2EAA1BBB1BFD01FD
:1015C0000DC0AA1FBB1FEE1FFF1FA217B307E40722
:1015D000F50720F0A21BB30BE40BF50B661F771F7A
:1015E000881F991F1A9469F760957095809590955A
:1015F0009B01AC01BD01CF010895EE0FFF1F0590C7
:10160000F491E02D099481E090E0F8940C94080B9B
:04161000F894FFCF7C
:10161400FFFFFFFF00E100000000000000C1808127
:101624000000000000000041061406B901E8050CA2
:1016340006F805E905000000007D01F0017602933B
:10164400019E019E027A020A544553542050434697
:10165400383537340A000D0A002333383A090000BC
:00000001FF
